{
  "abi": [
    {
      "inputs": [
        {
          "internalType": "uint8",
          "name": "v",
          "type": "uint8"
        },
        {
          "internalType": "bytes32",
          "name": "r",
          "type": "bytes32"
        },
        {
          "internalType": "bytes32",
          "name": "s",
          "type": "bytes32"
        },
        {
          "internalType": "address",
          "name": "sender",
          "type": "address"
        },
        {
          "internalType": "uint256",
          "name": "deadline",
          "type": "uint256"
        },
        {
          "internalType": "uint256",
          "name": "x",
          "type": "uint256"
        }
      ],
      "name": "executeSetIfSignatureMatch",
      "outputs": [],
      "stateMutability": "nonpayable",
      "type": "function"
    },
    {
      "inputs": [],
      "name": "get",
      "outputs": [
        {
          "internalType": "uint256",
          "name": "",
          "type": "uint256"
        }
      ],
      "stateMutability": "view",
      "type": "function"
    }
  ],
  "bytecode": {
    "object": "0x608060405234801561001057600080fd5b506103f4806100206000396000f3fe608060405234801561001057600080fd5b50600436106100365760003560e01c8063314eb9031461003b5780636d4ce63c14610050575b600080fd5b61004e610049366004610350565b610065565b005b60005460405190815260200160405180910390f35b8142106100b95760405162461bcd60e51b815260206004820152601a60248201527f5369676e6564207472616e73616374696f6e206578706972656400000000000060448201526064015b60405180910390fd5b604080518082018252600781526614d95d15195cdd60ca1b6020918201528151808301835260018152603160f81b9082015281517f8b73c3c69bb8fe3d512ecc4cf759cc79239f7b179b0ffacaa9a75d522b39400f818301527f89c49301b45a7e391d6cf20444403311006c3f48bd8e1817a8f37a42eec6ade5818401527fc89efdaa54c0f20c7adf612882df0950f5a951637e0307cdcb4c672f298b8bc6606082015246608082018190523060a0808401919091528451808403909101815260c0830185528051908401207f94cad2359ed2e2f8c0a4743f10ef1ce5153ec32fdb472bc63d96d12da92f839b60e08401526001600160a01b03881661010084015261012083018690526101408084018890528551808503909101815261016084019095528451949093019390932061190160f01b61018083015261018282018390526101a28201819052906000906101c20160408051601f198184030181528282528051602091820120600080855291840180845281905260ff8e1692840192909252606083018c9052608083018b90529092509060019060a0016020604051602081039080840390855afa158015610277573d6000803e3d6000fd5b505050602060405103519050876001600160a01b0316816001600160a01b0316146102e45760405162461bcd60e51b815260206004820152601d60248201527f4d7946756e6374696f6e3a20696e76616c6964207369676e617475726500000060448201526064016100b0565b6001600160a01b03811661033a5760405162461bcd60e51b815260206004820152601860248201527f45434453413a20696e76616c6964207369676e6174757265000000000000000060448201526064016100b0565b61034386600055565b5050505050505050505050565b60008060008060008060c0878903121561036957600080fd5b863560ff8116811461037a57600080fd5b9550602087013594506040870135935060608701356001600160a01b03811681146103a457600080fd5b9598949750929560808101359460a090910135935091505056fea2646970667358221220bb5895449f5c3708fb2f837a21c40feb69fddf62838784a4c12745cd5982056a64736f6c634300080a0033",
    "linkReferences": {}
  }
}